:040000005DEF00F0C0
:100008006708670867086708670867086708600877
:1000180007086708760767086308670867086708B6
:100028006708670867082E00670867086708670891
:100038006708670867086708420764086708670869
:100048006708670867086708670867086708670830
:100058002E00670867082E006208670867086708A7
:100068000D0867086708670867086708670867086A
:1000780067086708670867082E0067086708670841
:1000880067086708670867082E0067086708670831
:100098002E002E002E002E006708670867086708E4
:1000A8001308670867086708670867086708670824
:0600B800FF00CCEF0EF08A
:1016000000521D5C2100000000F020000000040ECC
:101610000301F36F000EF96F270EFA6F030E01013D
:10162000106F000E116F000E126F000E0301FB6FA2
:10163000000ED96F000EDA6FFE0EDB6F0F0EDC6F3F
:10164000000EDF6F000EE06F000EE36F000EE46F20
:10165000000EE56F000EE66F000EE76F000EEA6FFA
:10166000000EEB6F000EEC6F3B0EED6F010EEE6F98
:10167000000EEF6F000EF06F000EF16F000EF26FB4
:10168000F39D000EF46F100EF56F000EF66F000E56
:10169000F76F030EF86F000EFC6F010EFB6F000E6C
:1016A000D96F000EDA6FDB690F0EDC6F000EDF6F93
:1016B000000EE06F000EE36F000EE46F000EE56FAA
:1016C000000EE66F000EE76F000EEA6F000EEB6F84
:1016D0003E0EEC6F3B0EED6F010EEE6F000EEF6FE6
:1016E000000EF06F000EF16F000EF26FF39D000E12
:1016F000F46F100EF56F000EF66F000EF76F000E10
:10170000F86F000EFD6FB394980E0501606F210E07
:10171000616F8CEC10F0A884B392B39AB39CB39E23
:101720000301F38F1200000E0501696F67BF9DEF83
:101730000BF09BEF0BF0A7EF0BF0671F661F651F09
:10174000646D000E652366236723010E696F63BF16
:10175000AEEF0BF0ACEF0BF0B8EF0BF0631F621FB6
:10176000611F606D000E612362236323010E691BFC
:10177000000E6A6F000E6B6F000E6C6F000E6D6FC7
:101780006451651166116711D8B4C9EF0BF0CBEF46
:101790000BF001EF0CF0010E686FD5EF0BF0D89055
:1017A0006437653766376737682B67AFDAEF0BF05A
:1017B000DCEF0BF0CFEF0BF0D8906A376B376C375C
:1017C0006D376451605D6551615966516259675169
:1017D0006359D8A0EEEF0BF0F0EF0BF0F9EF0BF040
:1017E0006451605F6551615B6651625B6751635B29
:1017F0006A81D8906733663365336433682FDCEFD2
:101800000BF06951D8B407EF0CF009EF0CF011EFB1
:101810000CF06D1F6C1F6B1F6A6D000E6B236C2329
:101820006D236AC560F56BC561F56CC562F56DC564
:1018300063F512002750296E28502A6E2B6A2C6AF5
:101840002AC52CF529C52BF52A6A296A29C52DF543
:101850002AC52EF52BC52FF52CC530F505502D5C6E
:1018600006502E5807502F5808503058D8A03BEF3C
:101870000CF03DEF0CF06AEF0CF005502D5C2D6E76
:1018800006502E582E6E07502F582F6E0850305885
:10189000306E2DC529F52EC52AF52FC52BF530C57F
:1018A0002CF52AC529F52BC52AF52CC52BF52C6A54
:1018B00029C52DF52AC52EF52BC52FF52CC530F5DC
:1018C0002D5005262E5006222F5007223050082278
:1018D00095EF0CF02D50055C2D6E2E5006582E6E97
:1018E0002F5007582F6E30500858306E2DC529F5EF
:1018F0002EC52AF52FC52BF530C52CF52AC529F59F
:101900002BC52AF52CC52BF52C6A29C52DF52AC522
:101910002EF52BC52FF52CC530F52D50055E2E501C
:10192000065A2F50075A3050085A120041EC0FF057
:10193000D68ED68CA9EC0EF0B80E0501606F200E85
:10194000616F78EC10F03C0E0501606F1B0E616F4B
:101950008CEC10F0AEEC10F0000E206E0101428F06
:10196000429D32EC10F00501615109E10B0E605D02
:10197000D8A0BDEF0CF0BFEF0CF0B1EF0CF0A5EC70
:1019800010F00101429F428D32EC10F005016151CF
:1019900009E10B0E605DD8A0D0EF0CF0D2EF0CF097
:1019A000C4EF0CF0A5EC10F0202A090E2064DBEF48
:1019B0000CF0DDEF0CF0AEEF0CF00101429DA5EC58
:1019C00010F0B4EC10F0B1EC10F0640E91EC10F0EB
:1019D000640EA0EC10F0F3EC0CF00BEC0FF0EBEF5E
:1019E0000CF05DEF00F032EC10F0105005016019C2
:1019F00009E111506119D8B400EF0DF002EF0DF0BC
:101A000048EF0DF032EC10F060C510F561C511F52E
:101A10001E2A310E1E640FEF0DF011EF0DF02CEFAA
:101A20000DF0010142BF17EF0DF01AEF0DF0010E9E
:101A30001BEF0DF0000EFF0A0501726F7233723357
:101A400001014251050172197F0B72190101426FA8
:101A5000000E1E6E28EC0FF01D2A1D50D8B433EF77
:101A60000DF035EF0DF039EF0DF0000E1D6E1DEC91
:101A70000EF00B500BE1B90E095C0B0E0A58D8A002
:101A800044EF0DF046EF0DF048EF0DF05CEC0EF07A
:101A90001200000E0101406F000E416F000E426FF8
:101AA000F70E486F000E496F0F0E4A6F080E4C6F0D
:101AB000030E0401006F020E086F000E106FF00E8F
:101AC000016F000E096F0F0E116F000E216F000ED7
:101AD000026F000E0A6F000E126F03690B69136923
:101AE00004690C691469080E246F000E0201866FE8
:101AF000000E856F000E886F000E876F000E0401C8
:101B0000056F000E066F000E076F000E3D6F000E92
:101B10003E6F000E3F6F000E0D6F000E0E6F000E39
:101B20000F6F000E156F000E166F000E176F000E70
:101B3000256F000E266F000E276F1200C4EF0DF008
:101B400000EC10F027C521F528C522F521C527F5A1
:101B500022C528F51AEC0CF0010E1C6EDDEF0DF01D
:101B600000EC10F027C523F528C524F5020E1C6EE5
:101B7000DDEF0DF000EC10F027C525F528C526F5A2
:101B8000000E1C6EDDEF0DF01C50316E326A3250CB
:101B9000000AD8B4CEEF0DF0C0EF0DF03150000ABE
:101BA000D8B4A0EF0DF0010AD8B4B0EF0DF0030ADD
:101BB000D8B4BAEF0DF0C0EF0DF01200D68A000EC7
:101BC000D6BE010E0501626FD69E550E0401596FF7
:101BD000AA0E596F5991000E5F6F000E5E6F080ECE
:101BE0005D6F550E596FAA0E596F5981050162B18B
:101BF00002D0D69E01D0D68E9C8E9D849D889F88D3
:101C0000A188B390D680A00E0501606F210E616F90
:101C100087EC10F0B890D682A20E0501606F210EFD
:101C2000616F82EC10F0BC90D684A40E0501606F49
:101C3000210E616F7DEC10F0120041EF0EF0000EEE
:101C40009BEC10F0000E53EC10F05BEF0EF0000E6A
:101C50009BEC10F0010E53EC10F05BEF0EF0010E58
:101C60009BEC10F03E0E53EC10F058EC0FF06EC5EC
:101C70000EF56FC50FF55BEF0EF0000E1C6E5BEFFF
:101C80000EF01C500501706F716B7151000AD8B4D1
:101C90004CEF0EF03DEF0EF07051000AD8B41FEF7C
:101CA0000EF0010AD8B427EF0EF0030AD8B42FEFD4
:101CB0000EF03DEF0EF01200BAEC10F0B7EC10F0A1
:101CC00032EC10F060C50CF561C50DF50101428DD7
:101CD000429F32EC10F00C500501605F0D50615BCB
:101CE000615109E1C80E605DD8A079EF0EF07BEF7D
:101CF0000EF069EF0EF00101429DB4EC10F0B1EC72
:101D000010F065EC10F01200FAC43DF5FBC43EF58E
:101D1000B5981AC53BF51BC53CF5B0EC0FF03F502C
:101D20004010D8B496EF0EF098EF0EF0A4EF0EF03E
:101D300002D8A4EF0EF00500FA6E3F50FD6E405041
:101D4000FE6EFF6AFA5012003EC5FBF43DC5FAF480
:101D50001100000E0301156F000E166F010E176FB4
:101D6000630E136FBF0E126F125113C362F505019C
:101D7000636B62C563F5626B62111A6E63511B6E11
:101D8000A60E606F210E616F78EC10F0B598AA88EE
:101D9000230E0301146F1200940EF66E210EF76EDF
:101DA000000EF86E0900F5C449F50900F5C44AF5BE
:101DB0000900F5C44BF501EE01F1260EEE6AE806C6
:101DC000FDE10401080E5D6F000E5E6F000E5F6F97
:061DD000000196EF0CF08B
:101DD800FAC433F5FBC434F5B39447504810D8B46B
:101DE800F8EF0EF0FAEF0EF006EF0FF002D806EF5C
:101DF8000FF00500FA6E4750FD6E4850FE6EFF6A00
:101E0800FA50120034C5FBF433C5FAF4110048EC5B
:101E180010F0E806D8B413EF0FF015EF0FF01FEF2E
:101E28000FF03DEC10F0E806D8A41DEF0FF01FEFFF
:101E38000FF025EF0FF065EC10F00101428D27EF50
:101E48000FF00101429D120005C561F506C562F556
:101E580007C563F508C564F5150E39EF0FF00501E0
:101E6800D8906433633362336133E82E33EF0FF075
:101E78006151320F91EC10F01200C5EC0FF049ECF3
:101E88000DF007EC0BF0F3EC0FF0E6EC0FF072EC52
:101E980010F06CEC10F0AAEC10F0D6EC0FF0A9ECF6
:101EA8000EF0DEEC0DF01200000E0501606FF80E6A
:101EB800616F7F0E626F000E636F25C564F526C5DE
:101EC80065F5666B676B93EC0BF060C56EF561C5E5
:101ED8006FF5120045504610D8B475EF0FF077EF44
:101EE8000FF083EF0FF002D883EF0FF00500FA6EC2
:101EF8004550FD6E4650FE6EFF6AFA501200120001
:101F080043504410D8B48BEF0FF08DEF0FF099EFDA
:101F18000FF002D899EF0FF00500FA6E4350FD6EEE
:101F28004450FE6EFF6AFA501200120041504210EF
:101F3800D8B4A1EF0FF0A3EF0FF0AFEF0FF002D876
:101F4800AFEF0FF00500FA6E4150FD6E4250FE6E85
:101F5800FF6AFA5012001200030114A5B6EF0FF041
:101F6800B8EF0FF0C0EF0FF014913C50136F3BC562
:101F780012F31481C4EF0FF03C50136F3BC512F3FA
:101F88001200600E0001AD6F000EAF6F000EB36F50
:101F9800080EB16F000EB06F000EAC6F000E04019A
:101FA800586F1200000E0101286F050E296F000EF0
:101FB8002A6F000E2B6F000E2C6F000E2E6F880EEE
:101FC800276F1200AC98900E0001746F0A0E756F9F
:101FD800010E766F050E776FB798AC881200A89837
:101FE800900E0001706F0A0E716F000E726F040E72
:101FF800736FB398A88812000301EA51EBC329F55F
:102008002A6A29C52AF5296A2910276E2A50286EB6
:022018001200B4
:10201C00FAC435F5FBC436F5B3906EEC0FF036C54B
:10202C00FBF435C5FAF41100FAC437F5FBC438F5E6
:10203C00B89084EC0FF038C5FBF437C5FAF41100F6
:10204C00FAC439F5FBC43AF5BC909AEC0FF03AC5DA
:10205C00FBF439C5FAF41100AA9812C562F513C540
:10206C0063F5AA8862C560F563C561F512000001CD
:10207C0074BD43EF10F046EF10F0010E47EF10F077
:10208C00000E1200000170BD4EEF10F051EF10F079
:10209C00010E52EF10F0000E12000501616F0501E8
:1020AC00615196EC10F0BDEC10F01200124A132A9C
:1020BC00010E0926000E0A22000E0B221200000E41
:1020CC00096E000E0A6E000E0B6E1200880E0001D7
:1020DC00C56F7D0EC36F1200880E0001C26F7D0E9E
:1020EC00C06F120060C53FF561C540F5120060C5B8
:1020FC0041F561C542F5120060C543F561C544F573
:10210C00120060C545F561C546F5120060C547F57E
:10211C0061C548F512000501606F60C5C0F0120082
:10212C000501606F60C5ECF312000501606F60C5BE
:10213C00FBF312000501606F60C5C3F01200000EC6
:10214C00136E000E126E1200CA0E0301D76F12002E
:10215C000301148112000101428912000101428B1A
:10216C0012000101429912000101429B120003016D
:0A217C00F3811200CFEC10F0110007
:0F218800B7981100B3981100B59A1100B80B0069
:02219800120033
:0C219C00110012001200120012001200CC
:020000040030CA
:0B000000FFFFFFFF9FFF7FFFFFFFFFE0
:00000001FF
