:040000005DEF00F0C0
:10000800F908F908F908F908F908F908F908F108E8
:100018009608F908F907F908F508F908F908F90838
:10002800F908F908F9082E00F908F908F908F90893
:10003800F908F908F908F908D407F608F908F908D9
:10004800F908F908F908F908F908F908F908F908A0
:100058002E00F908F9082E00F408F908F908F9083B
:100068009C08F908F908F908F908F908F908F908DD
:10007800F908F908F908F9082E00F908F908F90843
:10008800F908F908F908F9082E00F908F908F90833
:100098002E002E002E002E00F908F908F908F9089C
:1000A800A208F908F908F908F908F908F908F90897
:0600B800FF0051EF0FF004
:10160000009C1F9E23000000002C2300000050ECD3
:1016100011F00E500501601909E10F506119D8B49D
:1016200014EF0BF016EF0BF0CBEF0BF050EC11F0CA
:1016300060C50EF561C50FF51C2A310E1C6423EF41
:101640000BF025EF0BF096EF0BF0010142BF2BEFF3
:101650000BF02EEF0BF0010E2FEF0BF0000EFF0A38
:101660000501726F72337233010142510501721923
:101670007F0B72190101426F000E1C6E52A743EFDF
:101680000BF045EF0BF049EF0BF0010E486E4BEFFE
:101690000BF0000E486ED8905231030B0501746FA9
:1016A0007451030A746F75EF0BF0000E456ED60E81
:1016B000466E830E476E92EF0BF0000E456EEB0EFA
:1016C000466E410E476E92EF0BF0800E456EF50EA2
:1016D000466E200E476E92EF0BF0D00E456E070E51
:1016E000466E000E476E92EF0BF07451726F736B83
:1016F0007351000AD8B47FEF0BF092EF0BF07251E8
:10170000000AD8B455EF0BF0010AD8B45DEF0BF026
:10171000030AD8B465EF0BF0010AD8B46DEF0BF0F3
:1017200092EF0BF047EC10F02EEC10F01B2A1B5040
:10173000D8B49DEF0BF09FEF0BF0A3EF0BF0000E72
:101740001B6E12EC0FF04804D8A4A9EF0BF0ABEF1E
:101750000BF0BCEF0BF00B500BE1B90E095C0B0E5C
:101760000A58D8A0B6EF0BF0B8EF0BF0CBEF0BF0A8
:1017700080EC0FF0CBEF0BF00950455C0A50465857
:101780000B504758D8B0C7EF0BF0C9EF0BF0CBEFB9
:101790000BF0B8EF0BF01200040E0301F36F000E14
:1017A000F96F270EFA6F030E0101106F000E116F13
:1017B000000E126F000E0301FB6F000ED96F000EBA
:1017C000DA6FFE0EDB6F0F0EDC6F000EDF6F000EA8
:1017D000E06F000EE36F000EE46F000EE56F000E89
:1017E000E66F000EE76F000EEA6F000EEB6F000E63
:1017F000EC6F3B0EED6F010EEE6F000EEF6F000E03
:10180000F06F000EF16F000EF26FF39D000EF46F9B
:10181000100EF56F000EF66F000EF76F030EF86FE7
:10182000000EFC6F010EFB6F000ED96F000EDA6F19
:10183000DB690F0EDC6F000EDF6F000EE06F000E35
:10184000E36F000EE46F000EE56F000EE66F000E12
:10185000E76F000EEA6F000EEB6F3E0EEC6F3B0E73
:10186000ED6F010EEE6F000EEF6F000EF06F000EC9
:10187000F16F000EF26FF39D000EF46F100EF56F16
:10188000000EF66F000EF76F000EF86F000EFD6F82
:10189000B394E00E0501606F230E616FAAEC11F0A6
:1018A000A884B392B39AB39CB39E0301F38F120042
:1018B000000E0501696F67BF62EF0CF060EF0CF07E
:1018C0006CEF0CF0671F661F651F646D000E6523CB
:1018D00066236723010E696F63BF73EF0CF071EF2E
:1018E0000CF07DEF0CF0631F621F611F606D000E36
:1018F000612362236323010E691B000E6A6F000ED1
:101900006B6F000E6C6F000E6D6F64516511661188
:101910006711D8B48EEF0CF090EF0CF0C6EF0CF01E
:10192000010E686F9AEF0CF0D89064376537663710
:101930006737682B67AF9FEF0CF0A1EF0CF094EFC7
:101940000CF0D8906A376B376C376D376451605D37
:10195000655161596651625967516359D8A0B3EF17
:101960000CF0B5EF0CF0BEEF0CF06451605F655108
:10197000615B6651625B6751635B6A81D8906733D4
:10198000663365336433682FA1EF0CF06951D8B426
:10199000CCEF0CF0CEEF0CF0D6EF0CF06D1F6C1FFF
:1019A0006B1F6A6D000E6B236C236D236AC560F597
:1019B0006BC561F56CC562F56DC563F51200255008
:1019C000276E2650286E296A2A6A28C52AF527C557
:1019D00029F5286A276A27C52BF528C52CF529C5BE
:1019E0002DF52AC52EF501502B5C02502C580350C2
:1019F0002D5804502E58D8A000EF0DF002EF0DF036
:101A00002FEF0DF001502B5C2B6E02502C582C6EDA
:101A100003502D582D6E04502E582E6E2BC527F5D1
:101A20002CC528F52DC529F52EC52AF528C527F57D
:101A300029C528F52AC529F52A6A27C52BF528C501
:101A40002CF529C52DF52AC52EF52B5001262C5035
:101A500002222D5003222E5004225AEF0DF02B505B
:101A6000015C2B6E2C5002582C6E2D5003582D6E9D
:101A70002E5004582E6E2BC527F52CC528F52DC5E4
:101A800029F52EC52AF528C527F529C528F52AC523
:101A900029F52A6A27C52BF528C52CF529C52DF56A
:101AA0002AC52EF52B50015E2C50025A2D50035A98
:101AB0002E50045A12002550276E2650286E296A8F
:101AC0002A6A28C52AF527C529F5286A276A27C55D
:101AD0002BF528C52CF529C52DF52AC52EF5055061
:101AE0002B5C06502C5807502D5808502E58D8A063
:101AF0007CEF0DF07EEF0DF0ABEF0DF005502B5CA1
:101B00002B6E06502C582C6E07502D582D6E0850F9
:101B10002E582E6E2BC527F52CC528F52DC529F579
:101B20002EC52AF528C527F529C528F52AC529F582
:101B30002A6A27C52BF528C52CF529C52DF52AC5F8
:101B40002EF52B5005262C5006222D5007222E5004
:101B50000822D6EF0DF02B50055C2B6E2C5006584A
:101B60002C6E2D5007582D6E2E5008582E6E2BC5FA
:101B700027F52CC528F52DC529F52EC52AF528C52C
:101B800027F529C528F52AC529F52A6A27C52BF581
:101B900028C52CF529C52DF52AC52EF52B50055E37
:101BA0002C50065A2D50075A2E50085A120060EC3D
:101BB00010F0D68ED68CCEEC0FF0F40E0501606FCF
:101BC000220E616F96EC11F01A0E0501606F1D0E6A
:101BD000616FAAEC11F0CFEC11F0000E1E6E010146
:101BE000428F429D50EC11F00501615109E10B0E4D
:101BF000605DD8A0FEEF0DF000EF0EF0F2EF0DF0FB
:101C0000C3EC11F00101429F428D50EC11F005012F
:101C1000615109E10B0E605DD8A011EF0EF013EFDA
:101C20000EF005EF0EF0C3EC11F01E2A090E1E6433
:101C30001CEF0EF01EEF0EF0EFEF0DF00101429DD4
:101C4000C3EC11F0D5EC11F0D2EC11F00001788169
:101C5000640EB4EC11F0640EAFEC11F007EC0BF075
:101C600011EC10F0E5EC11F02EEF0EF05DEF00F04E
:101C7000000E0101406F000E416F000E426FF70E23
:101C8000486F000E496F0F0E4A6F080E4C6F030E1F
:101C90000401006F020E086F000E106FF00E016F4E
:101CA000000E096F0F0E116F000E216F000E026FF4
:101CB000000E0A6F000E126F03690B691369046945
:101CC0000C691469080E246F000E0201866F000E65
:101CD000856F000E886F000E876F000E0401056F80
:101CE000000E066F000E076F000E3D6F000E3E6F78
:101CF000000E3F6F000E0D6F000E0E6F000E0F6F87
:101D0000000E156F000E166F000E176F000E256F78
:101D1000000E266F000E276F1200B9EF0EF01FECB9
:101D200011F025C51FF526C520F51FC525F520C5D1
:101D300026F55BEC0DF0010E1A6ED2EF0EF01FECE3
:101D400011F025C521F526C522F521C525F522C5A9
:101D500026F5DFEC0CF0020E1A6ED2EF0EF01FEC3F
:101D600011F025C523F526C524F5000E1A6ED2EF15
:101D70000EF01A502F6E306A3050000AD8B4C3EFFC
:101D80000EF0B5EF0EF02F50000AD8B48FEF0EF022
:101D9000010AD8B49FEF0EF0030AD8B4AFEF0EF0EB
:101DA000B5EF0EF01200D68A000ED6BE010E050168
:101DB000626FD69E550E0401596FAA0E596F599144
:101DC000000E5F6F000E5E6F080E5D6F550E596F4F
:101DD000AA0E596F5981050162B102D0D69E01D079
:101DE000D68E9C8E9D849D889F88A188B390D68036
:101DF000E80E0501606F230E616FA5EC11F0B8903D
:101E0000D682EA0E0501606F230E616FA0EC11F01F
:101E1000BC90D684EC0E0501606F230E616F9BECC5
:101E200011F0120036EF0FF0000EBEEC11F0000EB4
:101E300071EC11F050EF0FF0000EBEEC11F0010E3E
:101E400071EC11F050EF0FF0010EBEEC11F03E0EF0
:101E500071EC11F077EC10F06EC514F56FC515F547
:101E600050EF0FF0000E1A6E50EF0FF01A500501F0
:101E7000706F716B7151000AD8B441EF0FF032EFFF
:101E80000FF07051000AD8B414EF0FF0010AD8B463
:101E90001CEF0FF0030AD8B424EF0FF032EF0FF06D
:101EA0001200DC0EF66E230EF76E000EF86E0900BF
:101EB000F5C475F50900F5C476F50900F5C477F5A4
:101EC000980EF66E230EF76E000EF86E01EE45F1D9
:101ED00010EE06F00900F5C4EEF4E550E150FAE129
:101EE00001EE01F1240EEE6AE806FDE10401080EA0
:101EF0005D6F000E5E6F000E5F6F0001D7EF0DF09B
:101F0000DBEC11F0D8EC11F050EC11F060C50CF5E1
:101F100061C50DF50101428D429F50EC11F00C504E
:101F20000501605F0D50615B615109E1C80E605DA4
:101F3000D8A09DEF0FF09FEF0FF08DEF0FF0010194
:101F4000429DD5EC11F0D2EC11F083EC11F01200AF
:101F5000FAC43BF5FBC43CF5B59818C539F519C56D
:101F60003AF5CFEC10F0050178517911D8B4BBEFF8
:101F70000FF0BDEF0FF0C9EF0FF002D8C9EF0FF06F
:101F80000500FA6E7851FD6E7951FE6EFF6AFA50C7
:101F900012003CC5FBF43BC5FAF41100000E03012E
:101FA000156F000E166F010E176F630E136FBF0EC5
:101FB000126F125113C362F50501636B62C563F5BD
:101FC000626B6211186E6351196EEE0E606F230E14
:101FD000616F96EC11F0B598AA88230E0301146F77
:021FE0001200ED
:101FE400FAC431F5FBC432F5B39443504410D8B469
:101FF400FEEF0FF000EF10F00CEF10F002D80CEF32
:1020040010F00500FA6E4350FD6E4450FE6EFF6AF8
:10201400FA50120032C5FBF431C5FAF4110066EC33
:1020240011F0E806D8B419EF10F01BEF10F025EF0B
:1020340010F05BEC11F0E806D8A423EF10F025EFC4
:1020440010F02BEF10F083EC11F00101428D2DEF15
:1020540010F00101429D120001C561F502C562F54F
:1020640003C563F504C564F5150E3FEF10F00501D3
:10207400D8906433633362336133E82E39EF10F060
:102084006151320FAFEC11F0120005C561F506C5C0
:1020940062F507C563F508C564F5150E58EF10F031
:1020A4000501D8906433633362336133E82E52EF11
:1020B40010F06151320FB4EC11F01200E4EC10F0A6
:1020C40038EC0EF0CCEC0BF012EC11F005EC11F046
:1020D40090EC11F08AEC11F0C8EC11F0F5EC10F072
:1020E400CEEC0FF0D3EC0EF01200000E0501606F81
:1020F400F80E616F7F0E626F000E636F23C564F587
:1021040024C565F5666B676B58EC0CF060C56EF51D
:1021140061C56FF5120041504210D8B494EF10F02D
:1021240096EF10F0A2EF10F002D8A2EF10F0050025
:10213400FA6E4150FD6E4250FE6EFF6AFA50120074
:1021440012003F504010D8B4AAEF10F0ACEF10F0DA
:10215400B8EF10F002D8B8EF10F00500FA6E3F5057
:10216400FD6E4050FE6EFF6AFA50120012003D50A0
:102174003E10D8B4C0EF10F0C2EF10F0CEEF10F064
:1021840002D8CEEF10F00500FA6E3D50FD6E3E50C1
:10219400FE6EFF6AFA5012001200030114A5D5EF77
:1021A40010F0D7EF10F0DFEF10F014913A50136FE6
:1021B40039C512F31481E3EF10F03A50136F39C5A7
:1021C40012F31200600E0001AD6F000EAF6F000E2F
:1021D400B36F080EB16F000EB06F000EAC6F000E3F
:1021E4000401586F1200000E0101286F050E296FBB
:1021F400000E2A6F000E2B6F000E2C6F000E2E6F38
:10220400880E276F1200AC98900E0001746F0A0EAE
:10221400756F010E766F050E776FB798AC88120054
:10222400A898900E0001706F0A0E716F000E726F05
:10223400040E736FB398A88812000301EA51EBC32C
:1022440027F5286A27C528F5276A2710256E285000
:10225400266E1200FAC433F5FBC434F5B3908DEC4A
:1022640010F034C5FBF433C5FAF41100FAC435F5A3
:10227400FBC436F5B890A3EC10F036C5FBF435C5B5
:10228400FAF41100FAC437F5FBC438F5BC90B9EC84
:1022940010F038C5FBF437C5FAF41100AA9810C53C
:1022A40062F511C563F5AA8862C560F563C561F579
:1022B4001200000174BD61EF11F064EF11F0010E22
:1022C40065EF11F0000E1200000170BD6CEF11F00B
:1022D4006FEF11F0010E70EF11F0000E1200050106
:1022E400616F05016151B9EC11F0DEEC11F01200DF
:1022F400104A112A010E0926000E0A22000E0B2292
:102304001200000E096E000E0A6E000E0B6E120013
:10231400880E0001C56F7D0EC36F1200880E000188
:10232400C26F7D0EC06F120060C578F561C579F586
:10233400120060C53DF561C53EF5120060C53FF56C
:1023440061C540F5120060C541F561C542F5120052
:1023540060C543F561C544F512000501606F60C5B1
:10236400C3F012000501606F60C5C0F012000501E2
:10237400606F60C5ECF312000501606F60C5FBF38C
:102384001200000E116E000E106E1200CA0E030130
:10239400D76F120000D68301323203011481120078
:1023A4000101428912000101428B1200010142998C
:0E23B40012000101429B12000301F38112008E
:0A23C400F3EC11F011000400120008
:0F23D000B7981100B3981100B59A1100B80B001F
:0223E0001200E9
:0C23E40011001200120012001200120082
:020000040030CA
:0B000000FFFFFFFFABC77FFFFFFFFF0C
:00000001FF
